:100000000C9444000C94FF010C94FF010C94FF012C
:100010000C94FF010C94FF010C94FF010C94FF0160
:100020000C94FF010C94FF010C94FF010C94FF0150
:100030000C94FF010C94FF010C94FF010C94FF0140
:100040000C94FF010C9465010C94FF010C94FF01CA
:100050000C94FF010C94C0010C94FF010C94FF015F
:100060000C94FF010C94FF0186008D0094009E000B
:10007000A800B200BC0001000107800107010800D0
:10008000041001080109800011241FBECFEFD8E041
:10009000DEBFCDBFE6E7F0E040E017C0B591A59127
:1000A00035912591059107FD0CC095918591EF0142
:1000B000F92FE82F05900D92A217B307D9F7FE018B
:1000C00004C01D92A217B307E1F7E738F40731F730
:0C00D0000E941C010C94EE01F894FFCF7C
:1000DC00E82F84FF52C084B18C6284B984B18F7EC6
:1000EC0084B98CB580618CBDE7708E2F90E0873021
:1000FC00910508F04BC0FC01EC5CFF4F0C94F9012E
:10010C008CB58C7F8CBD8DB581608DBD3FC08CB5A1
:10011C008C7F8CBD8DB58E7F8DBD38C08CB58160CC
:10012C008CBD8CB58D7F8CBD8DB581608DBD2EC089
:10013C008CB581608CBD8CB58D7F8CBD8DB58E7F63
:10014C008DBD24C08CB58E7F8CBD8CB582608CBD72
:10015C008DB581608DBD1AC08CB58E7F8CBD8CB574
:10016C0082608CBD8DB58E7F8DBD10C08CB58360CB
:10017C008CBD8DB58E7F8DBD09C084B1806184B975
:10018C0084B1837D84B98CB58F7E8CBD8CB5462BA8
:0A019C00242B282B20642CBD0895AD
:1001A600882324F49BB194609BB903C09BB19B7FC9
:1001B6009BB986FF04C09BB198609BB903C09BB1F5
:1001C600977F9BB985FF04C09BB190619BB903C023
:1001D6009BB19F7E9BB984FF04C09BB190629BB983
:1001E60003C09BB19F7D9BB983FF04C09BB1906404
:1001F6009BB903C09BB19F7B9BB982FF04C09BB197
:1002060090689BB903C09BB19F779BB981FF04C0DF
:1002160095B1916095B903C095B19E7F95B980FF60
:1002260004C085B1826085B9089585B18D7F85B991
:02023600089529
:10023800F89484B1836084B98AB18C6F8AB988B123
:10024800857F88B98BB183708BB918B81BB820E04B
:1002580040E060E080E40E946E000E94A7018CB537
:1002680080688CBD7894EAE7F0E0808180648083C0
:100278008091070181110CC081E00E94D9019093FF
:100288000301809103010E94010283E0809307012A
:1002980080910701813061F483E00E94D901909335
:1002A8000201809102010E94010283E0809307010C
:1002B800809107018230E1F6809101010E94D3000C
:0202C800D7CF8E
:1002CA001F920F920FB60F9211242F933F934F93C1
:1002DA005F936F937F938F939F93AF93BF93CF93C4
:1002EA00EF93FF93CEB5C11106C0809103010E941E
:1002FA00010210920701C13039F4809102010E9473
:10030A00010281E080930701C23021F482E08093E8
:10031A00070106C080910701823011F4C0930101E0
:10032A00FF91EF91CF91BF91AF919F918F917F9163
:10033A006F915F914F913F912F910F900FBE0F9048
:04034A001F90189553
:10034E00ECE7F0E0108280818064808380818F777B
:10035E008083808180628083EAE7F0E01082808172
:10036E0088608083808187608083808180688083BD
:02037E000895E0
:100380001F920F920FB60F9211248F93EF93FF934A
:100390008091790080930801EAE7F0E08081806134
:1003A0008083FF91EF918F910F900FBE0F901F9060
:0203B00018959E
:1003B200EAE7F0E0908190649083ECE7F0E09081CE
:1003C200987F8770892B808380917A0086FDFCCF8D
:0A03D2008091780090917900089561
:1003DC00EC010E9406020E940502CE010E94070257
:0603EC00CE010E94030295
:0C03F200EE0FFF1F0590F491E02D099420
:0403FE000C9400005B
:040402008EBD08950E
:040406000E946C00E4
:02040A00089553
:02040C00089551
:02040E0008954F
:0104100003E8
:00000001FF
