S01300004C6162335F6D61737465722E73726563E4
S11300000C943B000C9458000C9458000C94580029
S11300100C9458000C9458000C9458000C945800FC
S11300200C9458000C9458000C9458000C945800EC
S11300300C9458000C9458000C9458000C945800DC
S11300400C9458000C9458000C94BB000C94580069
S11300500C9458000C9458000C9458000C945800BC
S11300600C9458000C9458003D0344034B0355036F
S11300705F036903730311241FBECFEFD8E0DEBF13
S1130080CDBF12E0A0E0B1E0ECECF9E002C00590D5
S11300900D92AE3AB107D9F722E0AEEAB2E001C060
S11300A01D92AA3BB207E1F70E94A0010C94E4045C
S11300B00C940000882324F49BB194609BB903C082
S11300C09BB19B7F9BB986FF04C09BB198609BB991
S11300D003C09BB1977F9BB985FF04C09BB190611E
S11300E09BB903C09BB19F7E9BB984FF04C09BB1A5
S11300F090629BB903C09BB19F7D9BB983FF04C0F1
S11301009BB190649BB903C09BB19F7B9BB982FF59
S113011004C09BB190689BB903C09BB19F779BB906
S113012081FF04C095B1916095B903C095B19E7FDC
S113013095B980FF04C085B1826085B9089585B101
S11301408D7F85B90895AC0120E007C09091C0006F
S113015095FFFCCF3093C6002F5FFA01E20FF11D2B
S113016030813111F3CF08959091C00095FFFCCFF9
S11301708093C60008951F920F920FB60F92112418
S11301808F939F938091C6008093B1029091C00099
S113019095FD8093C6009F918F910F900FBE0F9095
S11301A01F901895FF920F931F93CF93DF932FEF18
S11301B081EE94E0215080409040E1F700C00000BF
S11301C08BE892E00E94A30080E091E00E94A300EB
S11301D08BE892E00E94A30088E391E00E94A300D0
S11301E01092B1028091B1028823E1F30091B1022F
S11301F08BE892E00E94A3008FE491E00E94A300A8
S1130200802F0E94B4002FEF81EE94E021508040B3
S11302109040E1F700C000008BE892E00E94A30048
S113022087E691E00E94A3001092B1028091B1028E
S11302308823E1F3F090B1028BE892E00E94A300DE
S11302408FE491E00E94A3008F2D0E94B4002FEF51
S113025081EE94E0215080409040E1F700C000001E
S11302608BE892E00E94A3008BE791E00E94A30038
S11302701092B1028091B1028823E1F31091B1028E
S11302808BE892E00E94A3008FE491E00E94A30017
S1130290812F0E94B400802F90E0C09724E6289F0D
S11302A0A001299F500D11248F2D90E09C01205313
S11302B03109B901660F771FC901880F991F880F8B
S11302C0991F880F991F9B01280F391F240F351F71
S11302D0C12FD0E0E097C20FD31F8FE891E00E94B6
S11302E0A300802F0E94B4008F2D0E94B400812FA0
S11302F00E94B400CF3FD10509F0A0F48EEA91E04A
S11303000E94A3008C2F0E945A008C2F0E9483030A
S11303102FEF83ED90E3215080409040E1F700C03F
S1130320000008C084EC91E00E94A30085ED91E0F8
S11303300E94A300DF91CF911F910F91FF90089528
S11303400E948A0378948AB18C6F8AB91BB884B1ED
S1130350836084B915B81092B1021092B802109259
S1130360B7021092B9021092B3021092B202109224
S1130370AF0220E040E060E083E50E9425038BE8C3
S113038092E00E94A3008BEF91E00E94A3001092E0
S1130390AF021092B10215C08091B1028093B602EF
S11303A08091B602813619F0823629F008C081E0C6
S11303B08093AF0206C081E08093AF0202C0109226
S11303C0B6028091AF02882339F38091B602813658
S11303D021F0823609F41BC1D2CF1092B8021092D8
S11303E0B7021092B9021092B3021092B20285B110
S11303F08B7F85B980E00E9483030E9485038093EC
S1130400AE02682F70E080E090E00E94D60328E4FA
S113041031EE4AEF5FE30E943A040E94A503709311
S1130420B8026093B7022091B7023091B8023695B2
S1130430279536952795ABE7B4E10E94D5049695A8
S113044087958093B2022091B2021CE912039001B5
S113045011248091B7029091B802280F391FADEC96
S1130460BCEC0E94D50496958795969587959695AC
S113047087958093B9024091B2028091B90220918C
S1130480B7023091B802880F982F990F990F890FEE
S11304908195419F800D1124820F8093B30286E6DB
S11304A092E00E94A3008091B202805D0E94B40099
S11304B085E892E00E94A3008091B902805D0E94C9
S11304C0B4008091B302805D0E94B40087E892E09A
S11304D00E94A30089E892E00E94A30085B1846091
S11304E085B92FEF84E39CE0215080409040E1F7F0
S11304F000C0000085B18B7F85B91092B8021092BC
S1130500B7021092B9021092B3021092B20281E0C3
S11305100E9483030E9485038093AE02682F70E0DB
S113052080E090E00E94D60328E431EE4AEF5FE3D6
S11305300E943A040E94A5037093B8026093B70224
S11305402091B7023091B8023695279536952795B4
S1130550ABE7B4E10E94D504969587958093B202E7
S11305602091B2021203900111248091B70290915C
S1130570B802280F391FADECBCEC0E94D504969547
S1130580879596958795969587958093B90240911E
S1130590B2028091B9022091B7023091B802880F5B
S11305A0982F990F990F890F8195419F800D1124E0
S11305B0820F8093B3028EE892E00E94A3008091A0
S11305C0B202805D0E94B40085E892E00E94A3001C
S11305D08091B902805D0E94B4008091B302805D75
S11305E00E94B40087E892E00E94A30089E892E0A8
S11305F00E94A30085B1846085B92FEF84E39CE059
S1130600215080409040E1F700C00000B8CE85B191
S11306108B7F85B982E00E9483032FEF81EE94E003
S1130620215080409040E1F700C000000E94D200B9
S113063085B1846085B92FEF84E39CE0215080402C
S11306409040E1F700C000009ACEE82F84FF54C028
S113065084B18C6284B984B18F7E84B98CB5806195
S11306608CBDE7708E2F90E08730910508F044C070
S1130670FC01EC5CFF4F0C94CF048CB58C7F8CBDDB
S11306808DB581608DBD38C08CB58C7F8CBD8DB52A
S11306908E7F8DBD31C08CB581608CBD8CB58D7F56
S11306A08CBD8DB581608DBD27C08CB581608CBD3E
S11306B08CB58D7F8CBD8DB58E7F8DBD1DC08CB5E9
S11306C082608CBD8CB58E7F8CBD8DB581608DBDF7
S11306D013C08CB581608CBD8CB582608CBD8DB52A
S11306E081608DBD09C08CB581608CBD8CB5826084
S11306F08CBD8DB58E7F8DBD8CB5462B242B282BC0
S113070020642CBD08958EBD08950DB407FEFDCF61
S11307108EB508958AB182608AB98AB18E7F8AB90A
S11307201092C000E1ECF0E010828081886980833F
S1130730E2ECF0E0108280818660808388E090E0C3
S11307409093C5008093C40008950E94190488F012
S11307509F5798F0B92F9927B751B0F0E1F0660F81
S1130760771F881F991F1AF0BA95C9F714C0B130C2
S113077091F00E943304B1E008950C943304672F80
S1130780782F8827B85F39F0B93FCCF386957795F1
S11307906795B395D9F73EF49095809570956195DA
S11307A07F4F8F4F9F4F0895E89409C097FB3EF405
S11307B090958095709561957F4F8F4F9F4F9923AA
S11307C0A9F0F92F96E9BB279395F6958795779528
S11307D06795B795F111F8CFFAF4BB0F11F460FFE8
S11307E01BC06F5F7F4F8F4F9F4F16C0882311F040
S11307F096E911C0772321F09EE8872F762F05C054
S1130800662371F096E8862F70E060E02AF09A95EE
S1130810660F771F881FDAF7880F9695879597F9E3
S1130820089557FD9058440F551F59F05F3F71F0DC
S11308304795880F97FB991F61F09F3F79F0879543
S11308400895121613061406551FF2CF4695F1DFCC
S113085008C0161617061806991FF1CF869571055C
S1130860610508940895E894BB2766277727CB0190
S113087097F908950E944D040C94BE040E94B0049C
S113088038F00E94B70420F0952311F00C94A704CB
S11308900C94AD0411240C9434040E94110470F3DC
S11308A0959FC1F3950F50E0551F629FF001729F11
S11308B0BB27F00DB11D639FAA27F00DB11DAA1F20
S11308C0649F6627B00DA11D661F829F2227B00D6D
S11308D0A11D621F739FB00DA11D621F839FA00DF8
S11308E0611D221F749F3327A00D611D231F849F48
S11308F0600D211D822F762F6A2F11249F5750409F
S11309009AF0F1F088234AF0EE0FFF1FBB1F661F19
S1130910771F881F91505040A9F79E3F510580F0E2
S11309200C94A7040C9434045F3FE4F3983ED4F38E
S1130930869577956795B795F795E7959F5FC1F786
S1130940FE2B880F911D9695879597F9089597F931
S11309509F6780E870E060E008959FEF80EC089561
S113096000240A941616170618060906089500248A
S11309700A9412161306140605060895092E039404
S1130980000C11F4882352F0BB0F40F4BF2B11F478
S113099060FF04C06F5F7F4F8F4F9F4F0895EE0F2E
S11309A0FF1F0590F491E02D0994A29FB001B39F1D
S11309B0C001A39F700D811D1124911DB29F700D64
S10F09C0811D1124911D0895F894FFCFAF
S11309CC526563756572646520696E6772657361DF
S11309DC7220756E2076616C6F7220656E74726510
S11309EC20302C207369656E646F203030302061A8
S11309FC203235353A202000496E677265736120C8
S1130A0C6C612063656E746573696D613A20004591
S1130A1C6C2076616C6F72206573636F6769646FA9
S1130A2C206675653A2000496E6772657361206CA7
S1130A3C6120646563696D613A2000496E67726573
S1130A4C7361206C6120756E696461643A20000ADC
S1130A5C200D20456C2076616C6F72206573636F7A
S1130A6C6769646F206675652064653A20000D2003
S1130A7C0A20496E677265736F20612072616E671C
S1130A8C6F3A20000D200A204E6F20696E67726544
S1130A9C736F3A20000D200A20456C2076616C6F30
S1130AAC7220696E6772657361646F206573206967
S1130ABC6E636F72726563746F3A00517565206F63
S1130ACC7063696F6E20646573656120656C65671E
S1130ADC69723F20612E204C656572206C6F732007
S1130AEC76616C6F726573206465206C6F73207013
S1130AFC6F74656E63696F6D6574726F732E2062AB
S1130B0C2E204D616E64617220756E206461746F69
S1130B1C2070617261206C6563747572612041533D
S1130B2C4349492E20000A200D2056616C6F725FD8
S1130B3C64655F706F74656E63696F6D6574726FF5
S1130B4C5F313A20002E0056000A0D0A0D000A20CF
S1130B5C0D2056616C6F725F64655F706F74656EA7
S1110B6C63696F6D6574726F5F323A2000002A
S9030000FC
